:02000002B0004C
:1040000000400B00EE9A0B00000006000C000502B9
:084010000401B41400000000DB
:04401800F0920B0017
:10401C0010F8012B11F8013B012A28BF9A42F7D066
:10402C00D01A7047034613F8012B002AFBD1181A3B
:10403C000138704709480A49884208B505D0094A31
:10404C00824202D0121A04F095FF0748074A002159
:10405C00121A04F0B7FF014808BD00BF74E5032035
:10406C004C9A0B00E8E50320E8E50320F0E7032079
:10407C0070B5074E074C03F0CBFEA41BA40800251B
:10408C00AC4200D170BD56F8043B98470135F7E7B8
:10409C00049A0B00289A0B0000F0BAB808B500F08F
:1040AC00E7F8BDE8084003F06BBE01F063B801F01F
:1040BC0061B801F067B801F065B8000008B5034AB3
:1040CC0003490C2000F092FFFEE700BF4D4D0B00A2
:1040DC0004930B000078B0FA80F04009704701237C
:1040EC0003707047704770470A4B10B50446036065
:1040FC0002F0CAFF214603F002FA03F0ADFF03F011
:10410C009DFF2046044B40F8043B03F093F82046F7
:10411C0010BD00BFB4930B009C930B0010B504466C
:10412C00FFF7E2FF20462421FFF7C5FF204610BD14
:10413C000EB400B58CB00DAA4FF0200C52F8041B35
:10414C000392CDE900120023016804AA1E20CDE9D8
:10415C0004C300F05BFF0CB05DF804EB03B07047D8
:10416C002DE9F0418EB0044609A801F0E3FA0122D2
:10417C0009A904F1080002F059FB00283BD01F49A3
:10418C0009A801F010FBB0B394F92020079200218C
:10419C00204601F099FA01210690204601F094FA8C
:1041AC0002210546204601F08FFA032106462046DF
:1041BC0001F08AFA04210746204601F085FA052110
:1041CC008046204601F080FADDE90632CDE9038015
:1041DC000B490C480095CDE90167FFF7A9FF214673
:1041EC00094801F076FA094B94F920201A6001F085
:1041FC005FFC01F0A6FC0EB0BDE8F0817CE603206C
:10420C0019930B00D0E6032070E6032078E6032018
:10421C0038B503F021FF4FF4165103F00BFF0020CB
:10422C0000F09EFD42F210750446002000F098FD4F
:10423C00001B61F10001A84271F1000307D203F0E9
:10424C000BFF03F0FEFE10B900F07CFFEDE703F06E
:10425C0003FF03F0F6FE01F02BFC01F045FC03F02C
:10426C00FBFEBDE83840014902F061BD46930B00EE
:10427C0030B5234C8DB000F06BFD2368C01AB0F53F
:10428C00FA7F30D300F064FD20601E4C00252560C1
:10429C0001F00EFC1C492A4602F0A6FB236813B35E
:1042AC001A4A202104A800F07DFF03F0D5FE04A9D2
:1042BC0002F03DFD164800F033FAB0B1144800F09E
:1042CC0006FC2168134C0A22684601F0F2F8694694
:1042DC00204601F0D4F8684601F030F822680E4907
:1042EC000B4800F098FB0DB030BD684600F032FF73
:1042FC000099074800F004FB684601F01FF8F2E74C
:10430C0048E6032078E603206D410B008C960B00E9
:10431C00E8E5032090E603204F930B0070B5D0E93D
:10432C0000531426044606FB0356AE4204D028461E
:10433C0001F004F81435F8E7206800F023FF20465C
:10434C0070BD8842F8B504460D46164616D9904203
:10435C0015D2A2F11406751AA1F114072C44B74218
:10436C001CD02CB13146204601F064F8337C237408
:10437C00304600F0E3FF143E143CF0E70ED0B5429B
:10438C000CD02CB12946204601F054F82B7C237418
:10439C00284600F0D3FF14351434F0E7F8BD2DE9AE
:1043AC00F0410023C0E9003383604F689F4204460C
:1043BC000E4623DD4FF0140808FB07F000F0DAFE80
:1043CC000546D8B1D4E9001208FB0212FFF7B9FF79
:1043DC00206800F0D7FE2560A760D6E9007308FBC3
:1043EC000378B84508D03946284601F03DF83B7CA7
:1043FC002B7414371435F4E7736863602046BDE8FA
:10440C00F081000070B58EB000240021012000F076
:10441C001DFE40F25B72264B26490094264800F0A4
:10442C00A3F8CDE90244049403F016FE234C054690
:10443C0002A905A8FFF7B3FF264605A908A8FFF7B0
:10444C00AEFF1F4B46F8043B08A90BA8FFF7A7FFCC
:10445C000BAA1E21304603F035F90BA8FFF75EFFBF
:10446C0008A8FFF75BFF174B2360256205A8FFF731
:10447C0055FF154B236003F0EFFD4FF4165103F07D
:10448C00D9FD02F001FE214602F0F2FF02A8FFF76F
:10449C0045FF0E490E4801F005FA0E4801F03FF9B0
:1044AC000D490E480EB0BDE8704000F092BF00BF41
:1044BC00F3400B005F930B00E8E503204CE6032070
:1044CC009C930B0090950B00B4930B006E930B0018
:1044DC007CE6032070E6032056950B0090E6032043
:1044EC0091F85C3010B50446016013B1886D00F092
:1044FC0075FC204610BD10B5036893F85C2004468B
:10450C0012B1986D00F072FC204610BDF8B51F4634
:10451C009DF8243004460D4616462BB1012380F835
:10452C005C30583000F052FC089B2363002363631B
:10453C0006B1A66425B1294604F1380000F0A7FFA6
:10454C00069B2365079BE069A4F84C70FF2BB8BF52
:10455C00FF23A4F8543008B1FFF7ABFDB4F85400B6
:10456C00FFF7A5FDE061F8BD2DE9FF4104460025EC
:10457C00174698460E4604F0A9F80D49E56104F17A
:10458C00380000F026FF9DF82830A564CDE90283A1
:10459C00FF220F23CDE90032204684F85C503B46C5
:1045AC002A463146FFF7B2FF204604B0BDE8F08141
:1045BC0056950B0010B50446204603F0E3FF002887
:1045CC00FAD0204603F0ECFDC0B210BD2DE9F04747
:1045DC0005468846FFF7EEFFEB691870EB6993F818
:1045EC0000A04FF001090AF0F00A00274C462846BB
:1045FC00FFF7E0FF2646EB69985500F07F0313FBAD
:10460C0009F31F4401340306A4B2BFB24FEAC9191F
:10461C00EDD4631EBAF1300F88F800301ED1284655
:10462C00FFF7C8FFEB6918552846FFF7C3FFF41CCA
:10463C000236B6B2EB69A4B298550226B6B2BE42A7
:10464C000ED22846FFF7B6FFB5F85430A34284BF0C
:10465C00EB6918550134A4B20136EFE70026EDE7FB
:10466C00B5F85430A3422CBF20460020BDE8F0879B
:10467C002DE9F34115461E461A4607460023964679
:10468C0002A802F07F0CBEF17F0F03F1010403447A
:10469C0088BF4CF0800CBEF17F0F4FEAD212E4B20F
:1046AC0003F804CC1ED8C4F10403C4F10500E9548A
:1046BC00224601A9284405EB030804F05BFC721C9C
:1046CC0022444146384603F056FD054600F040FBB7
:1046DC00621C78623244A8B2131A5842584102B094
:1046EC00BDE8F0812346CAE70233F0B5054698B21F
:1046FC000023CE5C9CB256B1B5F854C0844503F18E
:10470C00010704D9441C16543B46A0B2F1E799B2F8
:10471C00411A0A44210A02F8021C02F8013CF0BDBD
:10472C0038B5044603F050FE002814BF01250025BF
:10473C0002D1204603F080FF284638BD2DE9F04712
:10474C0088B00446DDF840809DF850A08946174695
:10475C001E46FFF7E5FF0546002840F0CD802146B8
:10476C0001A8FFF7BDFEA16C002940F08880B4F8C9
:10477C004C20A16B2B46204603F0A8FD00287AD0D4
:10478C00012323849DF85430E269042B5B4B40F0E9
:10479C008180186899889B79ADF80C108DF80E30D3
:1047AC000290C2F805009DF80E30BDF80C10A2F86E
:1047BC000910D3720C23B8F1000F00F081809DF822
:1047CC0048009DF84420400140EAC20040F0060039
:1047DC00C0B2BAF1000F01D100F0FD001FB1002EE4
:1047EC0070D140F08000E269D054226DE169581C10
:1047FC0012120A549A1CE169206D88540333E26941
:10480C0049462046FFF770FF0346B8F1000F0BD066
:10481C00E26941462046FFF767FFE26913990346B8
:10482C002046FFF761FF034667B1E269394620462F
:10483C00FFF75AFF03462EB1E26931462046FFF7D7
:10484C0053FF0346053BE2699BB210212046FFF75C
:10485C000FFF00F07DFAC4E909004FF47A76204688
:10486C0003F090FE88BB00F073FAA36AC01A236DA4
:10487C0073439842F3D9204603F0DEFE35E002A8DC
:10488C0003F076FBB4F84C202B4602A9204603F02B
:10489C00FDFD73E7D3F80700D3F80B10DB7B0DF1AC
:1048AC00080CACE803008CF8003002AB03CBC2F868
:1048BC000500C2F809109CF8003053730E237AE7F8
:1048CC00022086E740F0C0008DE702A92046FFF7E2
:1048DC007DFE0428CFD1E369DE78002ECBD100F029
:1048EC0037FA0125A06284F82C6001A8FFF703FEBB
:1048FC00284608B0BDE8F0870025F9E7C8920B0000
:10490C007FB501230422CDE904320023CDE9023323
:10491C00CDE900331A46FFF711FF07B05DF804FB31
:10492C002DE9F74FDDF83C809DF834509DF8389018
:10493C0004468B4616461F46FFF7F2FE82460028B9
:10494C0051D0214601A8FFF7CBFDB4F85420E06903
:10495C00002104F037FB0523E26959462046FFF796
:10496C00C3FE6B1E012B15D8218CE369013189B272
:10497C002184090A1954421CE369218C92B2023039
:10498C00995480B2B8F1000F04D0238C5A1C2284A5
:10499C00A8F8003000210B188F42E2699BB20AD9AB
:1049AC00B4F854C09C4506D916F801C002F803C0EF
:1049BC00013189B2EFE79DF8301000290CBF30218E
:1049CC003121B9F1000F01D041F00801022D0ED1B7
:1049DC0041F00401053B9BB22046FFF749FE82469D
:1049EC0001A8FFF788FD504603B0BDE8F08F012DFC
:1049FC0008BF41F00201EDE71FB5089C03940024A9
:104A0C0002949DF81C4001949DF818400094FFF707
:104A1C0087FF04B010BD30B587B004461046059131
:104A2C000492FFF7FFFA00250346CDE90155DDE9B5
:104A3C00042100952046FFF7DFFF07B030BD73B5AA
:104A4C0004460E46FFF76CFE0546C8B1214601A888
:104A5C00FFF746FDE36962221A70E36902225A707D
:104A6C00E369320A9A70E369DE70E1690422204638
:104A7C0003F081FB051E01A818BF0125FFF73BFDC4
:104A8C00284602B070BD73B504460E46FFF748FECB
:104A9C000546C8B1214601A8FFF722FDE369722241
:104AAC001A70E36902225A70E369320A9A70E36958
:104ABC00DE70E1690422204603F05DFB051E01A8AF
:104ACC0018BF0125FFF717FD284602B070BD2DE970
:104ADC00F04F2DED028B87B000AF0446FFF720FEA0
:104AEC008146F8B1214607F11400FFF7F9FC00F0FC
:104AFC002FF9236D4FF47A725343A26A821A9A42A9
:104B0C00064603D8626A821A934221D294F82C305A
:104B1C007BB1204603F090FD4FF0000907F1140023
:104B2C00FFF7E9FC48461C37BD46BDEC028BBDE8DF
:104B3C00F08FE269C0211170E2695370E1690222C1
:104B4C00204603F018FBC4E90966012384F82C30D5
:104B5C00204603F017FD0028E0D007F11301204692
:104B6C00FFF734FD83460028D8D0E369A662197894
:104B7C0001F0F002302A7FD1D4F830A0BAF1000F46
:104B8C00CCD097F813C06A4608EE102A03EB0C023F
:104B9C005178957805EB0125ADB205F1080269460F
:104BAC00D208A1EBC20295460CF10302FA6003EBAA
:104BBC00020E0DEB05026846C7F808D07A60D7E9FB
:104BCC0001218A4206D00A461EF8018B02F8018B9D
:104BDC00BA60F4E70022425593F80080F96808F0B7
:104BEC000608ABEB0C02033AB8F1020FA2EB05027C
:104BFC00294425D113F801E01944023A91F801B087
:104C0C000CF10501294419440BEB0E2BD047E36939
:104C1C0040221A70E3691FFA8BFB83F80180E36969
:104C2C004FEA1B229A70E36983F803B0E16904220E
:104C3C00204603F0A0FA666218EE103A9D466DE726
:104C4C00B8F1040F15D113F801E01944023A91F8A8
:104C5C0001B00CF10501294419440BEB0E2BD04784
:104C6C00E36950221A70E36902221FFA8BFB5A7017
:104C7C00D5E71944D047DFE7502A08D19A78D9787C
:104C8C0001EB022189B22046FFF7D9FE46E7402A04
:104C9C0012D1626B002A3FF441AFBBF1040F7FF4D9
:104CAC003DAF11F0060F7FF439AF9978D87800EB4F
:104CBC00012080B2904731E7602A08D19A78D978E0
:104CCC0001EB022189B22046FFF7DDFE26E7702AB0
:104CDC00DFD0902A3FF422AFC02A0AD1D0221A701A
:104CEC00E36900225A70E1690222204603F043FA7C
:104CFC0014E7D02A04BF002384F82C300EE7000000
:104D0C0008B5024B1B689B68019308BD6802030041
:104D1C0008B5024B1B68DB68019308BD68020300F1
:104D2C0008B5024B1B685B69019308BD6C0203005C
:104D3C0008B5024B1B685B68019308BD18020300A1
:104D4C0008B5024B1B68DB68019308BD1802030011
:104D5C0008B5024B1B685B69019308BD1802030080
:104D6C0008B5024B1B68DB6D019308BD18020300EC
:104D7C0008B5024B1B689B68019308BD78020300C1
:104D8C0008B5024B1B68DB6F019308BD780203006A
:104D9C0008B5034B1B68D3F88430019308BD0000A1
:104DAC007802030008B5034B1B68D3F898300193C5
:104DBC0008BD00007802030008B5034B1B68D3F84C
:104DCC00F030019308BD00007802030008B5024BD7
:104DDC001B681B6B019308BD4802030008B5024B0E
:104DEC001B689B6B019308BD4802030008B5024B7E
:104DFC001B681B6C019308BD4802030008B5024BED
:104E0C001B685B6C019308BD4802030008B5024B9C
:104E1C001B689B6C019308BD4802030008B5024B4C
:104E2C001B68DB6C019308BD4802030008B5024BFC
:104E3C001B685B6D019308BD4802030008B5024B6B
:104E4C001B685B69019308BD6402030008B5024B43
:104E5C001B681B6A019308BD6402030008B5024B72
:104E6C001B689B6A019308BD6402030008B5024BE2
:104E7C001B689B68019308BD3C02030008B5024BFC
:104E8C001B68DB68019308BD3C02030008B5024BAC
:104E9C001B681B69019308BD3C02030008B5024B5B
:104EAC001B685B69019308BD3C02030008B5024B0B
:104EBC001B689B69019308BD3C02030008B5024BBB
:104ECC001B68DB69019308BD3C02030008B5024B6B
:104EDC001B689B6A019308BD3C02030008B5024B9A
:104EEC001B68DB6A019308BD3C02030008B5024B4A
:104EFC001B681B6C019308BD3C02030008B5024BF8
:104F0C001B689B69019308BD3802030008B5024B6E
:104F1C001B68DB69019308BD3802030008B5024B1E
:104F2C001B681B6A019308BD3802030008B5024BCD
:104F3C001B689B6A019308BD3802030008B5024B3D
:104F4C001B681B6B019308BD3802030008B5024BAC
:104F5C001B689B6B019308BD3802030008B5024B1C
:104F6C001B681B68019308BD4C02030008B5024B7B
:104F7C001B685B68019308BD4C02030008B5024B2B
:104F8C001B689B68019308BD4C02030008B5024BDB
:104F9C001B681B69019308BD4C02030008B5024B4A
:104FAC001B685B69019308BD4C02030008B5024BFA
:104FBC001B689B69019308BD4C02030008B5024BAA
:104FCC001B68DB69019308BD4C02030008B5024B5A
:104FDC001B681B6A019308BD4C02030008B5024B09
:104FEC001B689B6A019308BD4C02030008B5024B79
:104FFC001B685B6B019308BD6002030008B5024B94
:10500C001B681B6D019308BD6002030008B5024BC1
:10501C001B685B6D019308BD6002030008B5024B71
:10502C001B68DB6E019308BD6002030008B5024BE0
:10503C001B681B6F019308BD6002030008B5024B8F
:10504C001B685B68019308BD2002030008B5024B86
:10505C001B68DB6A019308BD2002030008B5034BF3
:10506C001B68D3F88830019308BD000020020300B0
:10507C0008B5034B1B68D3F89430019308BD0000AE
:10508C002002030008B5024B1B685B68019308BD46
:10509C004002030008B5024B1B689B68019308BDD6
:1050AC004002030008B5024B1B68DB68019308BD86
:1050BC004002030008B5024B1B681B69019308BD35
:1050CC004002030008B5024B1B685B69019308BDE5
:1050DC004002030008B5024B1B689B69019308BD95
:1050EC004002030008B5024B1B68DB69019308BD45
:1050FC004002030008B5024B1B681B6A019308BDF4
:10510C004002030008B5024B1B681B6B019308BDE2
:10511C004002030008B5024B1B685B6B019308BD92
:10512C004002030008B5024B1B681B6C019308BDC1
:10513C004002030008B5024B1B685B6C019308BD71
:10514C004002030008B5024B1B689B68019308BD25
:10515C004402030008B5024B1B68DB69019308BDD0
:10516C004402030008B5024B1B68DB6B019308BDBE
:10517C004402030008B5024B1B681B68019308BD71
:10518C001C02030008B5024B1B685B68019308BD49
:10519C001C02030008B5024B1B689B68019308BDF9
:1051AC001C02030008B5024B1B68DB69019308BDA8
:1051BC001C02030008B5024B1B685B6A019308BD17
:1051CC001C02030008B5024B1B68DB6A019308BD87
:1051DC001C02030008B5024B1B68DB6B019308BD76
:1051EC001C02030008B5024B1B681B6C019308BD25
:1051FC001C02030008B5024B1B685B6C019308BDD5
:10520C001C020300002240681146FFF773BF002206
:10521C0040681146FFF77EBF40680022FFF772BF5F
:10522C004068002281F00101FFF75CBF0023406859
:10523C001A461946FFF74EBF002340681A46194616
:10524C00FFF740BF002240681146FFF733BF002232
:10525C0040681146FFF71EBF406800220221FFF78D
:10526C0021BF002340681A46FFF70CBF024B0322F4
:10527C005A60024A1A607047A0E60320CC930B00D8
:10528C00054B02221A60054B054A9A600020C3E9BF
:10529C000000FFF7D3BE00BFB4E60320A8E603204E
:1052AC000000FFFF10B50446FEF7BCFE01382318C2
:1052BC002046834206D90278197800F8011B03F8BE
:1052CC000129F6E710BD70B50C46911E22291DD898
:1052DC00254630B9234430229D4210D205F8012BCB
:1052EC00FAE7B0FBF2F602FB1600C1B2092894BF34
:1052FC0030315731C9B205F8011B3046E9E70023BC
:10530C0020462B70FFF7CEFF204670BD0020FCE737
:10531C0038B5031E0C4615460EDAB3F1004F4FF0AC
:10532C002D0214BF5842184601230A702A4619440C
:10533C00FFF7C9FF204638BD0123F9E710B5044635
:10534C000068FFF71FFF204610BD10B5044600682B
:10535C0008B1FFF717FF0023C4E90133236010BD28
:10536C0038B504460D4600680131FFF713FF10B144
:10537C00C4E90005012038BD10B50368044623B10B
:10538C0043688B4201D3012010BD2046FFF7E8FF94
:10539C000028F9D0A368002BF5D122681370F2E72E
:1053AC0037B50D46114601920446FFF7E5FF019A09
:1053BC0028B92046FFF7C9FF204603B030BDA260D4
:1053CC002946206803F0D6FD2268A3680021D15439
:1053DC00F2E7002313B5C0E900330446836003737E
:1053EC0041B108460191FEF71DFE01990246204687
:1053FC00FFF7D6FF204602B010BD38B50546006851
:10540C000C4668B16A688B689A4207D3096803F046
:10541C0026FEA368AB600023A36038BDFFF7B2FE85
:10542C0023682B6063686B60A368AB600023C4E9DE
:10543C000033F1E710B50023C0E900330446836064
:10544C000373FFF7DAFF204610BD884210B50446FF
:10545C0005D00B682BB18A681946FFF7A1FF2046CF
:10546C0010BDFFF772FFFAE710B500230446C0E940
:10547C00003383600373FFF7E8FF204610BD8842BA
:10548C0010B5044601D0FFF7B8FF204610BD13B588
:10549C00044659B108460191FEF7C4FD0199024634
:1054AC002046FFF77DFF204602B010BDFFF74DFFF1
:1054BC00F9E710B504468AB00023C4E90033A360B1
:1054CC002373084601A9FFF723FF01A92046FFF724
:1054DC00DEFF20460AB010BD70B505460E4609B970
:1054EC00002070BD6AB1846814442146FFF744FF64
:1054FC000028F5D02868AB683146184403F0AFFD9E
:10550C00AC600120EDE707B500238DF804100122F3
:10551C0001A98DF80530FFF7DFFF03B05DF804FB40
:10552C0002680B46096862B141B9806860B11078B5
:10553C007047986840B10978484270471046FEF7AA
:10554C0067BD0029F5D10846704708B582688B689D
:10555C009A4205D1FFF7E4FFB0FA80F0400908BD8C
:10556C000020FCE770470000064B994210B500F193
:10557C000C0405D0084603F0CDFB002808BF00241E
:10558C00204610BDF4940B0010B530210446FEF7F4
:10559C0092FD204610BD3021FEF78DBDF0B50025E3
:1055AC00EC1C8C420DD86E1C445D875D974205D176
:1055BC002644B14205D31D60601CF0BD0134254466
:1055CC00EEE70020F9E710B40C46036820685DF89C
:1055DC00044BD3E900211047012A38B5044602D107
:1055EC000B68236003E0022A03D0032A0DD00020AD
:1055FC0038BD08200D68FEF758FD03460028F0D092
:10560C0095E8030083E80300EBE700680028EED080
:10561C000821FEF750FDEAE710B5836804462BB16C
:10562C000322014698470023C4E9023310BD10B58C
:10563C008368044613B1032201469847204610BDE7
:10564C0010B54368013B0446436063B903689B682B
:10565C009847A368013BA3602BB923682046DB68FD
:10566C00BDE81040184710BDA0F13003DAB2092A8A
:10567C0001D818467047A0F16103052B01D85738A3
:10568C007047A0F14103052B94BF37384FF0FF3022
:10569C007047000010B500230370044B04461868D3
:1056AC00FFF7BCFB01232370204610BDBCE6032092
:1056BC0010B5037804461BB1024B1868FFF7B6FB14
:1056CC00204610BDBCE60320052994BF405C002099
:1056DC0070470A6802604A684260704782B00346AD
:1056EC00086849686A4603C26A4603CA18601846C5
:1056FC00596002B0704708B582798B799A4206D10D
:10570C00062203F027FCB0FA80F0400908BD002007
:10571C00FCE74FF0FF33036083800020704708B52F
:10572C000246002101604160FFF7F3FF91711046C2
:10573C0008BD000010B501230361054B024603F1BF
:10574C00100153F8044B42F8044B8B42F9D110BDB5
:10575C00DE920B0010B50B460446B1B1012A01F1E3
:10576C0010020AD1014653F8040B41F8040B934282
:10577C00F9D101232361204610BD411E12F8010D01
:10578C0001F8010F9A42F9D1F3E7102203F01AFC49
:10579C00F1E738B504460D46FFF7CCFF0023236133
:1057AC00A581204638BD08B502690B699A4206D11D
:1057BC00102203F0CFFBB0FA80F0400908BD0020A6
:1057CC00FCE7000001232DE9F3410361344B0C4647
:1057DC000646024603F1100153F8040B42F8040B81
:1057EC008B42F9D144B32421204603F054FC042805
:1057FC004FF0000523D1ADF8045001AFA51C0634C1
:10580C0015F8020CFFF730FFB0F1000812DB15F8A9
:10581C00010CFFF729FF00280CDB023540EA0810C9
:10582C00A54207F8010BEBD19DF8053033739DF8B9
:10583C00043073730023336102B0BDE8F0814FF084
:10584C0010082421204603F026FCA84207D8424623
:10585C000021304602B0BDE8F04103F0B3BBB8F113
:10586C00000FE9D0605DFFF7FFFE030615D40001C1
:10587C0008F1FF38C7B206F808702421204603F05F
:10588C000AFC0135A84208D9605DFFF7EDFE40B275
:10589C000028A4BF384306F808000135D1E700BF43
:1058AC00DE920B0013B504460191FFF743FF20462F
:1058BC000199FFF787FF204602B010BDF7B50546EA
:1058CC0016461F460A4601ABD0E90001FFF766FEFB
:1058DC0030F002040CD0841EBC4228BF3C463EB1C2
:1058EC0001992B68023122461944304603F042FBE1
:1058FC00204603B0F0BD37B513460C4601920A465C
:10590C0008210546FFF7DAFF40B9019B2246092121
:10591C00284603B0BDE83040FFF7D0BF03B030BD20
:10592C00F0B50C4689B00C490546FFF752FD1F2215
:10593C0069462046FFF7DFFF064650B16C4600274C
:10594C0014F8011B2846FFF7DEFD10B10137BE42EB
:10595C00F6D1284609B0F0BD56950B0007B50223C9
:10596C0001AA1921FFF7AAFF08B1BDF8040003B082
:10597C005DF804FB10B5D0E9063203EBC20293428A
:10598C00184606D0046824888C4203F10803F6D12B
:10599C0010BD0020FCE7000070B500250560064630
:1059AC003020FEF782FB044688B10123C0E90133A5
:1059BC00094B03604FF6FF7383810E30FFF7AFFE88
:1059CC00C4E90655C4E90855C4E90A55A5757460BF
:1059DC000C343460304670BDE0940B0037B50D4686
:1059EC00044601A8FFF756FE2A68D2F8023023605D
:1059FC00D2F80630636001A8FFF75AFE204603B0C8
:105A0C0030BD30B5054687B00C4601A8FFF742FE05
:105A1C002A68236812881B889A420DD1294602A84D
:105A2C00FFF7DCFF214604A8FFF7D8FF04A902A862
:105A3C00FFF761FE044600B9002401A8FFF738FE09
:105A4C00204607B030BD000010B504466420FEF7B8
:105A5C002CFB68B10023C0E90033C0E90233C0E974
:105A6C000433C0E906330362C362C363C364C36512
:105A7C00206020B90A4A0B490A20FFF7B7FA002028
:105A8C00FFF776F920B1064A07490A20FFF7AEFA6C
:105A9C00216806480022FFF78FF9204610BD00BF91
:105AAC004D4D0B0000940B003E940B008D630B00CE
:105ABC0010B50A4C2378BFF35B8FDB070CD4204660
:105ACC00FEF708FB40B10648FFF7BEFF2046FEF785
:105ADC0006FB044803F030FA014810BDB8E6032079
:105AEC00C0E60320915C0B0008B50020FFF740F9DD
:105AFC0000EAE07008BD10B504464069FFF742FBB0
:105B0C00A068FFF73FFB204610BD002247F67F71CF
:105B1C00C0E90022C0E90222C0E90422C0E90E2239
:105B2C00C0E91022C0E91222C0E91422C0E91622F1
:105B3C00C0E91822C0E91B2202620263A0F86810B7
:105B4C0070470020FFF724B970B5D0E90053044624
:105B5C0005EB0316AE4204D02846FFF7EFFB1035D9
:105B6C00F8E72068FFF70EFB204670BD10B5044621
:105B7C000068FFF707FB204610BD70B50446C06DEA
:105B8C00FFF700FB206DFFF7FDFA04F1380504F177
:105B9C004400FFF7EBFF2846FFF7D6FF04F128007F
:105BAC00FFF745FD04F11800FFF741FDD4E9005360
:105BBC00242606FB0356AE4204D02846FFF79BFF73
:105BCC002435F8E72068FFF7DDFA204670BD38B5BC
:105BDC00141E4368054602DB62189A4200DD5C1A0B
:105BEC002A68501801191A44521A03F0D1F96A683C
:105BFC00121B6A6038BD0B68036013B15A6801321E
:105C0C005A60704710B551F8043B044640F8043B09
:105C1C00FFF7F1FF204610BD10B50446006808B12F
:105C2C00FFF70EFD204610BD70B5D0E900530446B9
:105C3C0005EBC306AE4204D0281DFFF7EDFF083577
:105C4C00F8E72068FFF79EFA204670BD70B5D0E9E2
:105C5C000053044605EBC306AE4204D0281DFFF7E3
:105C6C00DBFF0835F8E72068FFF78CFA204670BD9B
:105C7C0010B504462430FFF7E9FF04F11800FFF7D4
:105C8C00D3FF10BD70B5174B1C6854B304F154000E
:105C9C00FFF7CDFC04F14400FFF7C9FC04F134001C
:105CAC00FFF7C5FC04F12400FFF7C1FCD4E906534F
:105CBC0005EBC306AE4204D0281DFFF7ADFF083537
:105CCC00F8E7A069FFF75EFA04F10C00FFF7BEFFDE
:105CDC002046FFF7A9FF20466421BDE87040FEF77F
:105CEC00EAB970BDC0E60320826810B50AB903F0AA
:105CFC000DF8BDE81040C36818472DE9F0470023A4
:105D0C00C0E900338360D1F80480984505460F46FE
:105D1C004ADD4FEA0810FFF72DFA0646002843D05B
:105D2C00D5E90041A04204EB011A16D9504515D211
:105D3C00AAF1100AA4F11009AAEB04040444D145F9
:105D4C001DD01CB151462046FFF774FB5046FFF79F
:105D5C00F5FAAAF1100A103CF1E710D0B146A245B1
:105D6C000DD0B9F1000F03D021464846FFF762FB76
:105D7C002046FFF7E3FA103409F11009EFE7286821
:105D8C00FFF700FAC5F808802E60D7E9004304EB52
:105D9C000318A04506D021463046FFF765FB1034AA
:105DAC001036F6E77B686B602846BDE8F08730B5A7
:105DBC008DB00C4600F1380101A8FFF79EFF029B45
:105DCC00002B2FDD04F1140104A8FFF7A9FD04F149
:105DDC00080108A8FFF7A4FD0A9A069B13431FD0DD
:105DEC00DDE9014504EB0515AC4219D004A92046A8
:105DFC00FFF7ABFB60B1012408A8FFF79FFA04A8DA
:105E0C00FFF79CFA01A8FFF79FFE20460DB030BDAE
:105E1C00204608A9FFF799FB10340028E4D0EAE7E4
:105E2C000024E9E70124EDE7F8B50023C0E90033CD
:105E3C0083604F689F4205460E463EDDF800FFF733
:105E4C0099F90446C8B3D5E90003844200EBC303B7
:105E5C0010D99C420FD2083B1A1AA0F1080C22440C
:105E6C009C4518D01AB11968116059685160083BEB
:105E7C00083AF5E70FD0014622468B420BD03AB1D7
:105E8C00D1F800C0C2F800C0D1F804C0C2F804C0F8
:105E9C0008310832F1E7FFF775F92C60AF60D6E9ED
:105EAC00003103EBC100984206D01A6822605A6890
:105EBC00626008330834F6E769602846F8BD70B5AF
:105ECC0004460020C4E90000A0604E6886420D46DE
:105EDC0012DD7100FFF75EF970B12060A660D5E9A4
:105EEC00003203EB42029A4204D033F8021B20F832
:105EFC00021BF8E76B686360204670BD10B5037930
:105F0C00044623B90368186808B1FFF73BF920462B
:105F1C0010BD10B50379044623B90368186808B19D
:105F2C00FFF730F9204610BD2DE9F043D0F86C8016
:105F3C008FB00F46B8F1000F72D0056F002D6FD0E7
:105F4C0001F114091F230022FF214846FFF7B6FC7C
:105F5C000837FF230446002219463846FFF7AEFCEB
:105F6C00AC42064606D0AE4230D0002420460FB0DC
:105F7C00BDE8F0832046FFF7FDF803AB0493002344
:105F8C00044603908DF8143070B92023CDE9063007
:105F9C00244B00932449034606AA3220FFF72EF81F
:105FAC0004A8FFF7ABFFE1E70246FF212B4648466A
:105FBC00FFF784FC03982A46414602F0CBFF18B148
:105FCC0004A8FFF79BFFCEE70124E9E72846FFF77B
:105FDC00D1F8002403AB0646039004938DF81440CB
:105FEC0078B92023CDE906300E4B00930E490346B9
:105FFC0006AA3220FFF702F8344604A8FFF789FFFF
:10600C00B4E70246FF212B463846FFF757FC0398AE
:10601C002A46414602F09EFF0028EED10124ECE70F
:10602C000124A3E780940B0017940B0038B50D1EC8
:10603C000446006803DDFFF7ADF818B938BDFFF76B
:10604C00A1F800202060A5600120F7E708B583685F
:10605C008B4202DAFFF7EAFF08BD0120FCE738B5F6
:10606C000023C0E9003383600D4649689942044619
:10607C0010DDFFF7DBFF68B1D5E900312268194468
:10608C00994205D00AB11878107001330132F7E744
:10609C006B686360204638BD38B50B6803604B688D
:1060AC00436004460D4608300831FFF7D8FF05F170
:1060BC00140104F11400FFF7D2FF95F8203084F896
:1060CC002030204638BD1FB5044601A8FFF7C7FF96
:1060DC00019B029A2068236063686260039A0293B2
:1060EC00A368A26001900393FFF74CF804B010BDB5
:1060FC002DE9F0410F4641681D46194483689942C9
:10610C000446904612DC266862683E44D21B314637
:10611C00701902F03DFF2A464146304602F02AFF34
:10612C0063682B4463600120BDE8F081FFF77EFFBC
:10613C000028E8D1F8E713460A46002110B50446BA
:10614C00416002B10BB9002010BDFF2B28BFFF230B
:10615C00FFF7CEFF0028F7D06068F5E7F8B50D46DD
:10616C00D0E901139942044616460BDA2768626897
:10617C007919521B481C02F00BFF7E5563680133E2
:10618C006360F8BD0131FFF751FF0028EED1F8E74D
:10619C000A464168FFF7E2BF2DE9F74304461D4666
:1061AC000F4601AB90460A46D0E900019DF82890B5
:1061BC00FFF7F4F9AE1C63680246B9F1000F26D163
:1061CC0028B333441B1AFF2B09D801992046FFF73B
:1061DC00FEFC616820463144FFF738FF18B960684F
:1061EC0003B0BDE8F0836A1C0199D2B22046FFF7D8
:1061FC00B5FF01993A4601312046FFF7AFFF0199EF
:10620C002B46424602312046FFF772FFE7E7F118B2
:10621C00FF29E4D82046FFF719FF0028DFD0691CBE
:10622C00C9B22046FFF7B4FF39462046FFF7B0FF4E
:10623C0061682B464246E6E730B49DF808501AB127
:10624C00029530BCFFF7A8BF406830BC70471FB543
:10625C000023C0E9003383600622009301238DF8EC
:10626C000F2019460DF10F020446FFF7E5FF2046FB
:10627C0004B010BD8842F8B504460D46164614D934
:10628C00904213D2A2F10806751AA1F108072C440A
:10629C00B74218D01CB131462046FFF7B3FC301D75
:1062AC00FFF7BAFC083E083CF2E70CD0B5420AD026
:1062BC001CB129462046FFF7A5FC281DFFF7ACFCB6
:1062CC0008350834F2E7F8BDF7B504464668684669
:1062DC00FFF798FCD4E901739F4212DB0137002FC2
:1062EC0029DDF800FEF746FF0546F0B1D4E90012AF
:1062FC0001EBC202FFF7BEFF2068FEF743FF2560EB
:10630C00A7602368626803EBC60603EBC202314642
:10631C0006F10800FFF7AEFF1EB169463046FFF7E5
:10632C0071FC636801336360012501A8FFF774FCFD
:10633C00284603B0F0BD0025DEE7F8B5D0E90043F0
:10634C0005460F4604EBC306A64205D03946204647
:10635C00FFF757FB08B114B9F8BD0834F4E7201D5A
:10636C00FFF75AFCD5E9003204F1080103EBC20235
:10637C002046FFF77FFF6B68013B6B60ECE700008A
:10638C002DE9F04105468EB003A80C46FFF782F9C3
:10639C002E68F31E0D2B3CD8DFE813F00E005700CF
:1063AC003B00D3003B003B003B003B003B009D000F
:1063BC009D009D009D009D0004A8FFF7EDFA049B35
:1063CC00AA891A806968049808310230FFF786F9A7
:1063DC0004A906A8FFF716FC06A904F11800FFF79C
:1063EC0073FF054607A8FFF717FCC5B92023CDE9B5
:1063FC0006355E4B5E49009306AA2B460120FEF73C
:10640C00FDFD049B29461888FEF7CCFC05A8FFF778
:10641C0003FC03A8FFF74CF90EB0BDE8F081E36A6A
:10642C0023B104A904F12400FFF75EFC05A8FFF7D3
:10643C00F3FB20210023CDE906134E4A00924C4970
:10644C0006AA0120FEF7DAFDE3E7A9892046FFF74B
:10645C0091FA06460028DCD00568D5E906324FF6DD
:10646C00FF71298003EBC2029A4203D053F8080B48
:10647C004180F9E7D5E9037307EBC308B84504D0AD
:10648C00381DFFF7C9FB0837F8E700232B61D5E966
:10649C00067307EBC308B84504D0381DFFF7BCFBE7
:1064AC000837F8E70023EB61AB72E36B23B131469D
:1064BC0004F13400FFF718FC33684FF6FF721A80B2
:1064CC00314604F11800FFF738FF20220023CDE9F4
:1064DC000623294AB2E7A9892046FFF74BFA002880
:1064EC0097D0E36C002B94D000230D2EADF8163012
:1064FC0001D0102E17D1002369681A4606258DF895
:10650C00153004918DF814200690DDE9040109ABD7
:10651C008DF81C60089583E80300236D06A904F12F
:10652C004400984775E70F2E01BF2B7A696803F07A
:10653C00010208250FBFC3F340031A4619461D4636
:10654C00DDE7A9892046FFF715FA014600283FF43C
:10655C0060AFE36D002B3FF45CAF6B68069306AA4B
:10656C00236E04F15400984753E700BF9B940B0033
:10657C0017940B00C1940B00CB940B0038B50D1E77
:10658C000446006805DD14216943FEF703FE18B9C3
:10659C0038BDFEF7F7FD00202060A5600120F7E76D
:1065AC002DE9F8430024C0E900448460884649681A
:1065BC00A14207461ADDFFF7E1FFB8B1D8E9009315
:1065CC004FF0140CD7F800E00CFB039C09EB04050E
:1065DC00AC4508D01EEB04061FBF0FCD0FC62B68B1
:1065EC0033601434F2E7D8F804307B603846BDE8E9
:1065FC00F8832DE9F843D1E9008745688368E919E8
:10660C009942044617DC1423266862685D4303FB39
:10661C0007F95A432E44521B314606EB090002F08F
:10662C00B7FC4A464146304602F0A4FC63683B4442
:10663C006360BDE8F883FFF7A1FF0028E3D1F8E71A
:10664C0082B070B50C4604A981E80C00D0E90113A6
:10665C009942054617DA142303FB04F16A682C6887
:10666C005A430C44521AE018214604AE02F090FC36
:10667C000FCE0FC4336823606B6801336B60BDE8C9
:10668C00704002B070470131FFF778FF0028E2D16B
:10669C00F5E72DE9F04F002493B0931EC0E90044B8
:1066AC00DBB205460F4690468460059379688C42B0
:1066BC0072DA386807AB4246091B2044FEF76EFFBE
:1066CC000646002868D0059B012B2FD8A0F1020BA1
:1066DC004FEA5B0B4FF000090DF13C0A079BCB45D1
:1066EC00234455D03A6803EB4903134408A8D978DE
:1066FC009B7843EA0121FFF74CF80DF1200EBEE820
:10670C000F000DF1340CACE80F00DEF80030CCF8C3
:10671C0000309AE807008DE807000DAB0CCB6968D8
:10672C002846FFF78DFF09F10109D7E7A8F1060309
:10673C00012B2DD8A0F1020B4FEA1B1B4FF00009C7
:10674C000DF13C0ACB45079B22D002333968234418
:10675C0003EB09130122194408A8FEF7FBFF0DF106
:10676C00200EBEE80F000DF1340CACE80F00DEF883
:10677C000030CCF800309AE807008DE80700DDE91E
:10678C000D2369682846FFF75BFF09F10109D9E77A
:10679C00079B1C44344489E7284613B0BDE8F08FAE
:1067AC0030B5002385B0C0E9003383600446022273
:1067BC0001A80D46FFF76DFF01A92046FFF719FF51
:1067CC0001A8FFF7D3F90222294601A8FFF761FFC0
:1067DC0001A92046FFF70DFF01A8FFF7C7F9032217
:1067EC00294601A8FFF755FF01A92046FFF701FF35
:1067FC0001A8FFF7BBF90622294601A8FFF749FFBC
:10680C0001A92046FFF7F5FE01A8FFF7AFF9072213
:10681C00294601A8FFF73DFF01A92046FFF7E9FE35
:10682C0001A8FFF7A3F9204605B030BD2DE9F043D0
:10683C0085B08846014601A89146FFF7B1FF019E3D
:10684C00029B4FF0140E0EFB036C0027B4450DD0C9
:10685C00B94506F1140609D0A6F114050FCD0EFBAF
:10686C0007840FC42B6823600137EFE701A8FFF7FB
:10687C007DF9384605B0BDE8F0832DE9F04F8BB0BB
:10688C000C4600F1440101A8FFF78AFE029B002B85
:10689C004ADD04F1140104A8FFF782FF04F108019A
:1068AC0007A8FFF77DFF059D089E002D01DC002E3B
:1068BC0038DD019A029FDDF81080DDF81C9014235E
:1068CC0003FB072703FB058503FB06969246BA4597
:1068DC0028D0C346AB4515D059465046FEF763FF4A
:1068EC000BF1140B04460028F4D007A8FFF73EF96F
:1068FC0004A8FFF73BF901A8FFF738F920460BB0C5
:10690C00BDE8F08FCB46B34509D059465046FEF74B
:10691C004AFF0BF1140B04460028F4D0E5E70AF10A
:10692C00140AD4E70024E0E70124E4E713B50B468E
:10693C000246D0E900016C4684E8030093E80300AA
:10694C0082E8030094E8030083E8030002B010BD62
:10695C00F0B5044689B0164600F118070D4600291B
:10696C003AD0002308200293FDF79FFB08B1C0E941
:10697C0000561A4B03931A4B00900293002504A95E
:10698C0068460695FFF7D2FF029B069A029239469B
:10699C00079A069304A8039B07930392FFF7C6FF7D
:1069AC00069B226A2362079B069204A8626A6362B2
:1069BC000792FEF73CFE6846FEF739FE04F128000C
:1069CC00FEF72AFE2A4621460648FEF7D9F900288A
:1069DC00A8BF606909B0F0BD0291CFE7D3550B0099
:1069EC00E5550B00A36A0B0010B5A0B003A8CDE9C8
:1069FC000021FFF78AF8DDE9002103A8FFF7A8FFC3
:106A0C00044603A8FFF7B9F8204620B010BD884211
:106A1C00F8B504460D46164614D9904213D2A2F18D
:106A2C002406751AA1F124072C44B74218D01CB1C6
:106A3C0031462046FFF730FB3046FFF75CF8243E2A
:106A4C00243CF2E70CD0B5420AD01CB129462046B2
:106A5C00FFF722FB2846FFF74EF824352434F2E7E3
:106A6C00F8BDF8B50E1E054613DD242707FB06F00E
:106A7C00FEF780FB044658B1D5E9001207FB021261
:106A8C00FFF7C5FF2868FEF77DFB2C60AE60012088
:106A9C00F8BD0024F6E72DE9F0439DB001AD0646A4
:106AAC0028460C46FEF73BFE03A8FFF7D0FB06A8D2
:106ABC00FFF7CDFB30697169F28913AB03C385E82D
:106ACC0003003378B1688DF8243006A8FFF733FB48
:106ADC00B289716803A8FFF72EFB94F968307F2BFD
:106AEC0013AF03D09DF924209A425CDB94F96930F2
:106AFC007F2B03D09DF924209A4254DC04F15001E1
:106B0C003846FFF791F9149B002B52DD139E06EBD0
:106B1C00C309B14550D030462946FEF7ECFD083686
:106B2C0080460028F5D01398FEF72CFBB8F1000F27
:106B3C0039D029462046FFF73AF9A0B3294620461A
:106B4C00FFF79BFE064670B304F15C013846FFF775
:106B5C00B6F9149B002B12DD06A8FEF7FFFE80464B
:106B6C0003A8FEF7FBFEDDE9133203EB42029A4267
:106B7C0025D033F8021B884501D08842F7D11398F1
:106B8C00FEF700FB7EB129462046FFF7CDF950B148
:106B9C00236AB3B16369139501336361636A394640
:106BAC0004F1180098472846FEF7A5FF1DB0BDE874
:106BBC00F0834FF00108B6E74FF00008B3E700266A
:106BCC00DDE7D4F83080B8F1000F07D063690133EA
:106BDC0063612946636B04F12800E3E7D4F80CC029
:106BEC00BCF1000F25D063692269013393426361C4
:106BFC00D9D8242253432A4603CA243B0CEB030660
:106C0C004CF80300716006F1080003A9FFF75BFA6A
:106C1C0006A906F11400FFF756FA9DF9243086F800
:106C2C002030D4E904329A42BDD34046FEF7B0F886
:106C3C00B9E795E803000DF1280888E8030003A9DB
:106C4C000CA8FFF70CFA06A90FA8FFF708FA9DF895
:106C5C0024308DF84830414638466668FFF71CFAF8
:106C6C00D4E90113994210DA23686168242202FBEB
:106C7C00063606F1240002FB01323146FFF7C7FE4F
:106C8C0086B963680133636005E001312046FFF784
:106C9C00E8FE0028E8D13846FEF72DFF4046FEF707
:106CAC002AFF80E739463046FFF7F6F9E9E700009E
:106CBC00024800230360FEF7A1B800BFBCE6032026
:106CCC00F8B506460D468F180024BD420CD033682B
:106CDC0015F8011B9B6830469847031E01DB1C44CA
:106CEC00F3E7002C08BF1C462046F8BD13B504463C
:106CFC00084659B10191FDF795F923680199DB68B4
:106D0C000246204602B0BDE81040184702B010BD44
:106D1C0003689B68184738B50D210546FFF7F8FF47
:106D2C000A2104462846FFF7F3FF204438BD38B546
:106D3C000546FFF7DBFF04462846FFF7ECFF20442F
:106D4C0038BD30B58BB00023012A8DF8243098BFA4
:106D5C000A2209AC0D46B1FBF2F101FB125303F010
:106D6C00FF03092B94BF30333733DBB2AA4204F84C
:106D7C00013DEFD92146FFF7B9FF0BB030BD80685C
:106D8C000368DB6818477047084611B10B685B68ED
:106D9C0018477047704770477047704738B50446BE
:106DAC000D4600682E2102F050F92368C31A2B609F
:106DBC0023B1037803B1013023682060184638BD35
:106DCC0010B50C210446FDF776F9204610BD10B520
:106DDC0004210446FDF76FF9204610BD10B50421BF
:106DEC000446FDF768F9204610BDFEF717B808B544
:106DFC00FDF70EF9B0FA80F0400908BD704710B5E8
:106E0C000C4601F029F9844210D001F057FF84425E
:106E1C0005D101F053FFBDE8104001F09CB92CB135
:106E2C00236820465B68BDE81040184710BD0B680E
:106E3C0003604B68436013B15A6801325A60704763
:106E4C0013B5044608460191FDF7ECF8019902468A
:106E5C00204602B0BDE8104001F004BF13B5044653
:106E6C0008460191FDF7DEF823680199DB680246BC
:106E7C00204602B0BDE81040184707B503688DF8EE
:106E8C000710DB6801220DF10701984703B05DF88C
:106E9C0004FB0A6802604A6842600022C0E90222D0
:106EAC0010B502618C688460CC68C4600C698A601F
:106EBC00CA6004610A6110BD2DE9F74FD0E9008466
:106ECC004FF0140A00930AFB04F4184BA410174655
:106EDC005C434546002C21DD66100AFB06F005EBF1
:106EEC0000093A46B9F804B0285801915F4528BF0B
:106EFC005A4602F0BCF8002801994FF001030BD15F
:106F0C005F4503D1009A13703446E3E7FCD9A61B06
:106F1C0009F11405013EF7E7F9DBF5E7A5EB0805E8
:106F2C000248AD10684303B0BDE8F08FCDCCCCCC9B
:106F3C007FB50369057E019103B3F9B1002600F119
:106F4C000C04039603A901A8FFF728FF0146A8B17A
:106F5C000DF10B03039A8DF80B602046FFF7ACFF85
:106F6C009DF80B3053B12368142404FB003408340F
:106F7C0034F9023C002BA8BFDDB2E3E7284604B08D
:106F8C0070BD0EB4F0B58CB000AF07F144050446EB
:106F9C0055F8042B7A602B46202107F11000FD6078
:106FAC00FEF708F91F287A681AD900F1080323F0B4
:106FBC0007036E46ADEB030D411C2B466846FD6086
:106FCC00FEF7F8F8021E04DD23686946DB682046EC
:106FDC009847B5463037BD46BDE8F04003B0704722
:106FEC000028F7D023680246DB6807F11001204621
:106FFC009847EFE710B5094C2378BFF35B8FDB079D
:10700C0009D42046FDF766F828B12046FDF767F84D
:10701C00034801F091FF034810BD00BFC8E60320F0
:10702C00A16D0B0074E5032010B5094C2378BFF358
:10703C005B8FDB0709D42046FDF74CF828B12046BE
:10704C00FDF74DF8034801F077FF034810BD00BF72
:10705C00CCE60320096E0B0078E5032038B500253B
:10706C000446C0E90055C0E904558560856140F8C7
:10707C00245FFDF7C3FEFFF7BDFFE061FFF7D4FF10
:10708C0025732062204638BD10B50A4C2378BFF317
:10709C005B8FDB070CD42046FDF71CF840B106488B
:1070AC00FFF7DCFF2046FDF71AF8044801F044FF17
:1070BC00014810BDC4E60320D4E60320E9750B009B
:1070CC00024A034903480023FDF7B0BFCD730B0000
:1070DC0059730B00D9720B0000231A461946184637
:1070EC00FDF7A4BF37B58D6804466846FFF79FFED1
:1070FC006A462946204601F0D5FC01A8FEF78CFD16
:10710C00204603B030BD37B5CD6804466846FFF75E
:10711C008EFE6A462946204601F0A0FC01A8FEF727
:10712C007BFD204603B030BD37B50D69044668467B
:10713C00FFF77DFE6A462946204601F038FC01A87F
:10714C00FEF76AFD204603B030BD000070B58AB072
:10715C000D46014604A8FFF7C5FF144E04A801F024
:10716C00B9FCE8B104A96846FFF7CDFF0298314697
:10717C00FFF73DFE044610B12C1E18BF012401A8D8
:10718C00FEF74AFD002CE9D004A96846FFF7CCFFB6
:10719C00684601F042FC286001A8FEF73DFDDDE7E2
:1071AC0005A8FEF739FD0AB070BD00BFFC940B00BA
:1071BC0037B50C46204613491546FCF729FF50B944
:1071CC0000F04AFF4FF4165100F034FF03B0BDE855
:1071DC00304000F041BF0C492046FCF719FF78B94C
:1071EC004FF4165301A928460193FFF7AFFF01F0A6
:1071FC0065FD019900F0ACFF01F060FD03B030BDFE
:10720C000020FBE701950B0008950B0070B5D0E949
:10721C0000531426044606FB0356AE4205D005F176
:10722C000800FFF7F3FF1435F7E72068FDF7AAFF16
:10723C00204670BD10B504460C30FFF7E7FF204622
:10724C00FEF782FC204610BD10B5044B044640F8F6
:10725C00043BFFF7EFFF204610BD00BF9C930B00D3
:10726C0010B50446FFF7F0FF20462421FCF723FF5E
:10727C00204610BD10B5034B03600446FFF7E4FF36
:10728C00204610BDA8950B0010B50446FFF7F2FF81
:10729C0020462421FCF70FFF204610BD0022C0E938
:1072AC00002210B582600C6804604C6844608C68E5
:1072BC000A604A6084608A6010BD10B50368044699
:1072CC001868FDF7B3FD204610BD00002DE9F04F06
:1072DC0087B0804603931C4B5B68C3F30803894655
:1072EC0016466BB9FFF7D0FE044600F12403406A42
:1072FC000593FFF77AFD237B2BB105A8FFF7DDFF84
:10730C0007B0BDE8F08F01232373D4E900535FFA73
:10731C0089F905EB830AAA4512D055F8047B31464E
:10732C00381DFFF705FE8145F5D33B68039A0092A3
:10733C00D3F808B04A46334641463846D847EAE7C0
:10734C0000232373D9E700BF00ED00E02DE9F74FD0
:10735C009B461A4B5B68C3F3080380468946164666
:10736C006BB9FFF791FE044600F12403406A0193C8
:10737C00FFF73BFD237B2BB101A8FFF79EFF03B06A
:10738C00BDE8F08F01232373D4E90053F6B205EB6B
:10739C00830A55450ED055F8047B5946381DFFF726
:1073AC00C7FD8642F5D33B684A46DB684146384602
:1073BC009847EEE700232373DEE700BF00ED00E003
:1073CC002DE9F341164B5B68C3F3080305460F46E2
:1073DC001BBBFFF759FE00F124030446406A0193DE
:1073EC00FFF703FDD4E90063462406EB8308B045A0
:1073FC0009D101A8FFF761FFA542B4BF002001200D
:10740C0002B0BDE8F08156F8040B39460430FFF7A2
:10741C008FFD8442A8BF0446E9E70020F0E700BFD7
:10742C0000ED00E0F8B5D0E901539D4204460E464C
:10743C000DDB6F1C002F006804DDB900FDF7AAFE00
:10744C0018B9F8BDFDF79EFE00202060A7602768E4
:10745C00626807EB85019200A2EB8502081D01F022
:10746C0097FD47F825606368013363600120E8E706
:10747C0037B500F124030446406A01930D46FFF72B
:10748C00B4FCD4E9003203EB8202934219460BD0D0
:10749C000968A94203F10403F7D101A8FFF70DFF16
:1074AC000025284603B030BD29462046FFF7BAFF19
:1074BC0005460028F1D06368012B01D1FFF700FECF
:1074CC0001A8FFF7FAFEECE770B50446D0E900021C
:1074DC000B4600EB820282420FD001461D6851F828
:1074EC00046BAE4207D1521A01F052FD6368013BA6
:1074FC006360012070BD0846EDE70020FAE71FB578
:10750C0000F124030446406A01910393FFF76DFCDC
:10751C0001A92046FFF7D8FF18B163680BB9FFF734
:10752C00DBFD03A8FFF7C9FE04B010BD70B5D0E9B0
:10753C0004561823044603FB0656AE4215D005F13B
:10754C0010012046FFF7C0FF63680BB9FFF7C4FDBD
:10755C00E06929690368DB689847696919B1206A91
:10756C000368DB6898471835E7E7D4E90453182615
:10757C0006FB0356AE4204D02846FDF7DFFE183555
:10758C00F8E70023636170BD73B50446FFF7A4FDF3
:10759C0004F12403606A0193FFF727FC2046FFF7F0
:1075AC00C5FF01A8FFF789FE606A08B1FDF72EFC44
:1075BC00D4E90453182606FB0356AE4204D02846E1
:1075CC00FDF7BCFE1835F8E72069FDF7DBFD2068F8
:1075DC00FDF7D8FD204602B070BD00000148FFF752
:1075EC00D3BF00BFD4E603208842F8B504460D464D
:1075FC00164615D9904214D2A2F11406751AA1F1AF
:10760C0014072C44B7421AD01CB131462046FFF760
:10761C0040FC06F10800FFF7F9FD143E143CF1E7BD
:10762C000DD0B5420BD01CB129462046FFF731FCDA
:10763C0005F10800FFF7EAFD14351434F1E7F8BD45
:10764C008842F8B504460D46164614D9904213D21A
:10765C00A2F11006751AA1F110072C44B74218D0EC
:10766C001CB131462046FDF7E5FE3046FDF766FEBF
:10767C00103E103CF2E70CD0B5420AD01CB12946A2
:10768C002046FDF7D7FE2846FDF758FE103510347E
:10769C00F2E7F8BD70B50E1E054611DD3001FDF7A1
:1076AC0069FD044658B1D5E9001201EB0212FFF74F
:1076BC00C7FF2868FDF766FD2C60AE60012070BD29
:1076CC000024F6E72DE9F04F904695B00023039186
:1076DC00D8F804100A9346229942C0E90033C0E955
:1076EC000233C0E90433CDE908330446027623DCC7
:1076FC00D8E90057142303FB0757AF423BD0294668
:10770C000BA8FDF797FE0BA90FA8099EFDF792FE9B
:10771C00DDE9091399421BDA089B099A03EB06165B
:10772C0003EB0212314606F11000FFF789FFEEB9A8
:10773C00099B0133099311E008A8FFF7ABFF002860
:10774C00D6D108A8FEF700FA204615B0BDE8F08F98
:10775C00013108A8FFF79EFF0028DDD10FA8FDF727
:10776C00EDFD0BA8FDF7EAFD1435C6E70FA9304671
:10777C00FDF760FEDCE70026CDE90B660D964FF0B9
:10778C001409DDE908239E427CDA3301D3580693B1
:10779C000BB90136F5E70023079309FB06F30293B7
:1077AC000BAD07A906A8FFF7F9FA82460028F0D01E
:1077BC004FF000038DF817300146079A0DF11703AF
:1077CC002846FFF779FB9DF817700190002F4AD1DE
:1077DC00BDF81C30ADF84030CDE911774FF6FF7392
:1077EC00CDF83CA0ADF842301397D5E90132934265
:1077FC0017DB03F1010ABAF1000F30DD09FB0AF0C7
:10780C00FDF7B8FC834660B3D5E9001209FB021200
:10781C00FFF7EAFE2868FDF7B5FCC5F800B0C5F81F
:10782C0008A02B68019A09FB023A6A68514609FBC9
:10783C0002320AF11400FFF7D7FEBAF1000F03D0A1
:10784C000FA95046FFF725FB6B6801336B6011A83D
:10785C00FFF7DCFC3FB10BA8FFF7D8FC71E7BB4688
:10786C00D8E70127F3E7019B2D6809FB0355069B1D
:10787C001B782BB9D8F80030029A13441B7CEB8090
:10788C0008358EE72168226062686360A3680992FC
:10789C000A9A0A93E368A2600B9A0B932369E2603D
:1078AC000C9A0C93636922610D9A0D93039B0891BA
:1078BC0062612376CFE70000F0B5044687B00D4631
:1078CC002646194668461746FCF769FD0B4B46F8E9
:1078DC00043B694603A8FCF762FD03AA394630460F
:1078EC00FFF7F0FE03A8FCF719FD6846FCF716FD40
:1078FC00034B23602046256207B0F0BD9C930B0020
:10790C0090950B00F0B50F4685B01D490A9C384682
:10791C0016461D46FCF77CFBC0B9A4B1294601A84C
:10792C00FFF7BCFC1749242001F0ECF9054630B1F7
:10793C0001AB32462146FFF7BFFF134B2B6001A86A
:10794C00FCF7ECFC2C46204605B0F0BD0F49384640
:10795C00FCF75EFB90B9002CF5D0294601A8FFF787
:10796C009DFC0849242001F0CDF905460028E6D0FD
:10797C0001AB32462146FFF79FFFE0E70024E2E728
:10798C0010950B0079970B00A8950B0014950B0024
:10799C00014B024A1A607047D0E6032025950B0074
:1079AC002DE9F047089DD0F8209004460E46174666
:1079BC00984600F051FB81454CD02B79190704D522
:1079CC006A6954492046FFF7DCFAB8F1000F0DD074
:1079DC005B212046FFF751FA41462046FFF73EFA5D
:1079EC0023684D49DB680222204698472B79DA0739
:1079FC0023D5D5F808802F21404601F058FB08B15B
:107A0C0000F1010841462046FFF728FA2B799B0725
:107A1C0008D53A212046FFF730FAEA683F4920465C
:107A2C00FFF7AFFA2A79236812F0040FDB6814BF52
:107A3C003B493C490222204698472B7958071DD5D3
:107A4C0029690B461A4613F8010B60B1202808D19E
:107A5C001946F7E7344800F0C2FE0028ADD0BDE867
:107A6C00F0872828EED12368521ADB682046984705
:107A7C0023682E49DB6804222046984700213846AB
:107A8C00FDF7CCFA01462046FFF7E8F923682549B3
:107A9C00DB680222204698471EB131462046FFF78C
:107AAC00DDF92B7913F0300F2CD023682049DB68DB
:107ABC000222204698472B79D9060AD523681D49FE
:107ACC00DB68072220469847AA691B492046FFF726
:107ADC0058FA2B799A0611D5DB0605D5236810497F
:107AEC00DB6802222046984723681449DB6820464D
:107AFC000A229847E9692046FFF7B0F95D21204634
:107B0C00FFF7BBF923680E49DB6820460222BDE86B
:107B1C00F047184729950B0030950B008C960B00FD
:107B2C0033950B0038950B0038E7032036950B0086
:107B3C003B950B003E950B0046950B0049950B00B1
:107B4C0054950B002DE9F0410446076A0D46164684
:107B5C0000F082FA874207D0206A03683246294631
:107B6C00DB68BDE8F0411847034800F038FE0028F8
:107B7C00F2D0BDE8F08100BF38E703202DE9F043D7
:107B8C0085B0D0F820900C9C05460F4690461E46BA
:107B9C0000F062FA814505D1494800F020FE00282A
:107BAC0040F08A802B6A474A01924FF0000901A8E5
:107BBC0003938DF8089000F0B6FF49464046FDF758
:107BCC002DFA41498046012201A801F03BF84146BB
:107BDC00FFF736F93FB13D49012201A801F032F817
:107BEC003946FFF72DF93EB13949012201A801F0C0
:107BFC0029F83146FFF724F92379DF070ED5A6685B
:107C0C002F21304601F053FA00B1461C31490122B4
:107C1C0001A801F017F83146FFF712F923799E07F6
:107C2C0007D52D49022201A801F00CF8E16800F0FB
:107C3C0087FF2379580714D5266933461F4613F856
:107C4C00012B2AB1202A01D11E46F7E7282AF5D1AB
:107C5C002249022201A800F0F5FFBA1B314601F0BF
:107C6C0001F82379190707D51D49012201A800F055
:107C7C00E9FF616900F076FF2379DA0608D5042262
:107C8C0018490DEB020000F0DDFFA16900F058FF70
:107C9C0023799B0607D51449062201A800F0D2FFD0
:107CAC00E169FFF7CDF801A800F027FF286A0F491A
:107CBC0003680222DB68984705B0BDE8F08300BF7B
:107CCC0038E7032078950B0006950B006C930B009E
:107CDC00FF980B0057950B0059950B005C950B000A
:107CEC005F950B0061950B0066950B0054950B008E
:107CFC00024B1A68024B1A60704700BF7CE50320E8
:107D0C00FCE6032010B5044B03600446806908B1FF
:107D1C00FDF796FC204610BDB4960B0010B504463A
:107D2C00FFF7F0FF20461C21FCF7C5F9204610BDDB
:107D3C00014B00229A60704700E70320014B18604A
:107D4C00704700BF80E5032008B50B4B43B100F032
:107D5C0083F903681B699847002801DDAFF30080A5
:107D6C00064B43B100F0AAFF03681B699847002833
:107D7C0001DDAFF3008008BD000000000000000032
:107D8C0008B5FFF7E1FFFCF7E3FF014B186008BDF6
:107D9C0058E703200548064A064908B5121A01F0AF
:107DAC00E9F8054B054A1A6008BD00BF00F4032032
:107DBC0004F40320C09A0B0000F403201E1C279A25
:107DCC0007B5002300931A466FF07701FDF750F9C1
:107DDC0003B05DF804FB000007B543880A2B08D0FC
:107DEC00502B0BD1094B1B684BB103B05DF804EB66
:107DFC001847FFF7E5FF03B05DF804FB0023009381
:107E0C001A466FF07701FDF733F9F4E714E7032016
:107E1C0010B512480021FDF7EDF9114B1A68114B02
:107E2C009A42114B0CBF012200221A7001D0FFF7AD
:107E3C00B1FFFCF77DFF044601F0CCF80B4B13B1FE
:107E4C002046AFF3008000210848FDF78BF9BDE810
:107E5C00104007480021FDF701B900BF497D0B0018
:107E6C0000F403201E1C279A10E7032000000000DA
:107E7C00E57D0B00704710B518210446FCF71BF983
:107E8C00204610BDF0B5037D062B8DB00E4600F1DB
:107E9C0004074FF0000412D000F1080515F8011D7D
:107EAC000A223046FEF74DFFAF42044419D0002C95
:107EBC00F4D02E213046FEF72BFF0444EEE72F239F
:107ECC006A4639460A208DF80040FCF7B7FF684631
:107EDC00FCF7A8F833680246DB68694630469847D9
:107EEC00044620460DB0F0BD10B5054B04461122DA
:107EFC0040F8043B002101F065F8204610BD00BF9E
:107F0C000C960B000346074A10B543F8042B01F1FD
:107F1C00100251F8044B43F8044B9142F9D10A7802
:107F2C001A7010BD0C960B00037D042B04D1406815
:107F3C00003818BF01207047062B07D143683BB9A6
:107F4C0083682BB9C3681BB90069F1E7002070473F
:107F5C000120704710B59DF8084044EA032343EA1A
:107F6C00024242EA016104234160037510BD000026
:107F7C0007B5064B0360CB7800938B784A78097869
:107F8C00FFF7E8FF03B05DF804FB00BF0C960B0095
:107F9C00417470477047704708B50021007CFDF7AD
:107FAC0005F840EAE07008BD08B50121007CFCF73B
:107FBC00FDFF40EAE07008BD08B5007CFCF7EEFF61
:107FCC0020EAE07008BD08B5007CFCF7DFFF20EA72
:107FDC00E07008BD13B50446007C0191FCF7DEFF90
:107FEC000028019901DC607C20B1207CFCF7E6FFC5
:107FFC0020EAE07002B010BD007CFCF7E7BF10B5C2
:10800C0014210446FCF757F8204610BD10B54FF468
:10801C007A73044608460021C4E90113044B23601B
:10802C000123207463741146FCF798FF204610BDA1
:10803C0020960B00007C0022FCF798BF007CFCF71C
:10804C009DBF007CFCF7CABF10B51422044600216A
:10805C0000F0B8FF204610BD10B50F4C88B003A837
:10806C00FFF7F2FF2178BFF35B8F11F001010FD105
:10807C0020460191FCF72EF8019948B103AA074854
:10808C00FFF7C4FF2046FCF72AF8054800F054FF20
:10809C00024808B010BD00BF18E703201CE70320FE
:1080AC00A17F0B0070474174704708B5007CFCF74A
:1080BC000DFF20EAE07008BD08B5007CFCF7E6FE79
:1080CC0020EAE07008BD08B5007CFCF7EFFE40EA42
:1080DC00E07008BD08B5007CFCF7E0FE40EAE070FB
:1080EC0008BD007CFCF7EABE37B5457C04462DB1D3
:1080FC00207C03B0BDE83040FCF7C0BE007C019191
:10810C00FCF7E4FE00280199F2DC284603B030BDF0
:10811C0010B514210446FBF7CEFF204610BD00001D
:10812C0010B54FF47A730446084611460022C4E990
:10813C000123044B2360012320746374FCF7D6FEE7
:10814C00204610BD50960B00007C0023FCF7C6BEE9
:10815C000022FFF7F9BF007CFCF788BE13B503685B
:10816C008DF80710DC6B01224FF0FF330DF1070186
:10817C00A04702B010BD10B40368DC6B4FF0FF33A6
:10818C00A4465DF8044B604713B5134602688DF89E
:10819C000710D46B0DF107010122A04702B010BDEE
:1081AC0010B54369B3F88620B3F884309A4204467C
:1081BC0008D06369B3F88420511CA3F884101344CD
:1081CC00187910BD03681B6998470028F1D14FF04E
:1081DC00FF30F6E7704743691868C043C00F70471B
:1081EC0070470000064B994210B500F10C0405D005
:1081FC00084600F08FFD002808BF0024204610BD63
:10820C00F4940B0010B5AC210446FBF754FF204648
:10821C0010BDAC21FBF74FBF2DE9F0414FF000082A
:10822C0086B01C46C0F8048005460E4617464146EB
:10823C00102202A800F0C6FE631C09D04FF47A731A
:10824C00B4FBF3F203FB1244CDE902285C43049423
:10825C00686910230093006802AB41F2050240F6F6
:10826C00FF71FCF74BFE002807DAFCF7B3FF03683D
:10827C006B60002006B0BDE8F081686900230068DF
:10828C003A463146FCF75AFE031EEEDB1846F1E780
:10829C0030B587B0044601AD6846FFF769FE0FCDD7
:1082AC0004340FC42B68237007B030BD70B54D6912
:1082BC00054B04468C3544F8043B06460FCD0FC4E1
:1082CC002B682370304670BD0C960B002DE9F043E3
:1082DC009846036893B00D460024DB6A06461746A1
:1082EC00984728466B46224621460094FCF710FD21
:1082FC000546002863D1009B002B4BD05B69002BFB
:10830C0048D006A8FFF7F0FD009B5C696378022B50
:10831C0004D1211D06A8FFF7BBFF26E00A2B24D1B0
:10832C001122294601A800F04DFEA368002B38D07D
:10833C0004F108030DF1040C1834186859686246EE
:10834C0003C20833A3429446F7D1062301A90CA813
:10835C008DF81430FFF7D6FD0DF1340CBCE80F008E
:10836C0007AC0FC4DCF80030237006A8FFF7DCFD67
:10837C0080B1336807ADD3F82090124B0C930FCD1E
:10838C000DAC0FC42B6823703A4643460CA93046FB
:10839C00C84705460098FCF7B3FC284613B0BDE867
:1083AC00F083E368002BC3D14FF6FF70D4F8109024
:1083BC00FCF74CFD8145BBD104F11401AAE725461D
:1083CC00E8E700BF0C960B0038B543691A68002A21
:1083DC00054610DAB3F88620B3F884309A420AD1F5
:1083EC0003681B699847044628B92B682846DB6A42
:1083FC009847204638BD0120FCE710B54369B3F817
:10840C008620B3F884309A42044605D06369B3F8E9
:10841C0084201344187910BD03681B699847002801
:10842C00F4D14FF0FF30F6E7F8B543691746B3F8CF
:10843C008620B3F884309A4205460E4616D06969F8
:10844C00B1F88430B1F88640E41ABC4228BF3C46EF
:10845C00043322461944304600F08CFD6A69B2F8A8
:10846C0084302344A2F884302046F8BD03681B698D
:10847C0098470028E3D14FF0FF34F5E74269002319
:10848C00A2F884304269A2F8863070472DE9F04199
:10849C001F4603680C46DB6A8AB0054616469847A9
:1084AC00237DD5F81480042B0CBF02200A20062251
:1084BC000121FCF74BFDC8F800006B691B68002B11
:1084CC0008DA2B682846DB6A0024984720460AB055
:1084DC00BDE8F0812846FFF7D1FFB7B1002303A90F
:1084EC00F8B20393ADF81030FCF71AFC0028E8D171
:1084FC00686906230093006803AB41F20B0240F657
:10850C00FF71FCF7FBFC0028DBD11C22002103A827
:10851C0000F058FD237D042B1DD14FF4077330461A
:10852C00ADF80C30FCF79AFCADF80E006068FCF767
:10853C008DFC04906B691C22186803A9FCF7EEFCF7
:10854C000028BED104340FCC6D698C350FC523685F
:10855C002B700124BAE740F61C233046ADF80C30E2
:10856C00FCF77CFC05AEADF80E00231D04F11407DE
:10857C0018685968324603C20833BB421646F7D115
:10858C00D8E7000030B54269B2F886308BB00446AB
:10859C002BB1B2F884209A4201D1FFF76FFF6169C9
:1085AC000868002818DBB1F886507F2D14D80431E8
:1085BC000823C5F180022944FCF7B8FC002813DD20
:1085CC006369B3F886200AB9A3F884206369B3F809
:1085DC0086201044A3F886006369B3F88600B3F8CC
:1085EC008430C01A0BB030BDFCF7F4FD03680B2BC4
:1085FC00F2D0FCF7EFFD03680B2BEDD02023002508
:10860C00CDE90235FCF7E6FD03680193084B0949F7
:10861C00009302AA2B463220FCF7F0FC6369186821
:10862C00FCF774FC63694FF0FF321A60D4E700BFAB
:10863C007F960B0078960B0010B5436904461868BA
:10864C00002801DBFCF762FC63694FF0FF321A6013
:10865C006069112200218C3000F0B4FC2046BDE88A
:10866C001040FFF70BBF10B5002304460160C0F8A3
:10867C0084308830FFF738FC204610BD73B50023DA
:10868C004FF47A72C0E901320E4A03610260436111
:10869C000446AC200191FBF708FD051E05F10C0604
:1086AC0008D00123C5E90133074B01992B603046F3
:1086BC00FFF7D9FF2046C4E90565FFF7DFFE02B0DE
:1086CC0070BD00BFB4960B0098960B0010B54FF020
:1086DC00FF310446FFF7D2FF204610BD10B504460B
:1086EC000068002801DBFCF711FC204610BD0C30A3
:1086FC00FFF7F4BF002240681146FCF7DBBC0022F8
:10870C0040681146FCF7F6BC002240681146FCF7A5
:10871C0001BD40680022FCF7F5BC4068002281F0E6
:10872C000101FCF7DFBC002340681A461946FCF730
:10873C00D1BC002340681A461946FCF7C3BC002282
:10874C0040681146FCF7A6BC406800220221FCF7E9
:10875C00A9BC002340681A46FCF794BC024B0422C7
:10876C005A60024A1A60704730E7032000970B00EA
:10877C00002340681A46FCF785BC406800220221A1
:10878C00FCF790BC002240681146FCF783BC002229
:10879C0040681146FCF78EBC002340681A46194607
:1087AC00FCF790BC002340681A461946FCF792BCB3
:1087BC0040680021FCF7B6BC40680021FCF7BABC4D
:1087CC004068002281F00101FCF78CBC406800225B
:1087DC00FCF798BC002240681146FCF79BBC0022B9
:1087EC0040681146FCF786BC2DE9F04395B0144661
:1087FC000D460746FFF778FB00211C220DA80091BF
:10880C0000F0E0FB40230C9320466B460CAA0021A1
:10881C00FCF77EFA044600284BD102460121686819
:10882C00FCF748FC0221804622466868FCF742FCB3
:10883C00009E81462146002E3BD0002939D1736819
:10884C00022B03D00A2B11D0F669F4E7B8F1000F14
:10885C00FAD0716906A8043107ADFFF789FB0FCD7B
:10886C003C1D0FC42B6823704146EDE7B9F1000F96
:10887C00EAD07469102201A800F0A4FB06238DF83D
:10888C00143001AD04F108031834186859682A46ED
:10889C0003C20833A3421546F7D101A906A807ADB8
:1088AC00FFF730FB0FCD3C1D0FC42B6823704946DE
:1088BC00CAE70098FCF724FA384615B0BDE8F083F7
:1088CC00024B034A1A6000225A60704738E70320B3
:1088DC003C970B0000F11003012213F8101C012926
:1088EC00184608D153F8041C02EB4102013A03F17B
:1088FC001003F2D17047022904BF53F8041C52181C
:10890C00F4E70EB4F0B588B000AF07F134051021D0
:10891C0055F8042B7A6004462B467818FD60FCF75A
:10892C0049FC0F287A681AD900F1080323F00703D1
:10893C006E46ADEB030D411C2B466846FD60FCF703
:10894C0039FC021E04DD236869469B682046984763
:10895C00B5462037BD46BDE8F04003B0704700284F
:10896C00F7D0236802469B6807F110012046984710
:10897C00EFE738B50B6803604D6843689D420446C9
:10898C0008D015B16B6801336B60606808B1FCF7F7
:10899C0057FE656038BD07B503688DF807109B68F6
:1089AC0001220DF10701984703B05DF804FB0B465B
:1089BC001146002210B5C0E90022044683600BB9B1
:1089CC00204610BDFFF7D5FFFAE78368EBB11A78A4
:1089DC00032A1AD8DFE802F00417021B052070479F
:1089EC0002685B685268D05C2D2812D0A0F130036D
:1089FC00092B0ED974280ED066280CD0A0F16E036A
:108A0C005842584170470620704700207047042098
:108A1C007047032070470220704710B50446FFF7DB
:108A2C00D4FF02280ED0C31EDBB2012B14D822684F
:108A3C00A36850685B68BDE810400A220021184406
:108A4C0000F0CCBB2268A36852685B68D05CA0F1D4
:108A5C0074035842584110BD0020FCE738B5002380
:108A6C00C0E9003304460E48C4E90203A9B10B78EF
:108A7C00032B06D08BB9136858684B68C35C6E2BFC
:108A8C0007D013684D6858688B6828445B1BA0603E
:108A9C00E36011462046FFF76CFF204638BD00BF4F
:108AAC0056950B0038B500250B46C0E90055C0E9BA
:108ABC000255C0E90455044611464BB11A78012AF7
:108ACC0006D103F11002DB6882604361FFF751FFAE
:108ADC00204638BD10B54369044663B18068E06038
:108AEC00013B1030A0602061636113B1FFF7F2FE0F
:108AFC00A060012000E0184610BD10B57D21044691
:108B0C00FFF749FF01232371204610BD08B50379F7
:108B1C00012B02D0022B04D008BD2C21FFF73BFF08
:108B2C00FAE73A21FAE710B50446FFF7EFFF2046C3
:108B3C007B21FFF730FF00232371204610BD00007E
:108B4C0013B504460191FFF7E1FF2368019ADB6836
:108B5C0003492046984701232046237102B010BDDB
:108B6C008C960B0013B504460191FFF7CFFF2368D9
:108B7C00019ADB680349204698470123204623715C
:108B8C0002B010BD70970B002DE9F0470D46222165
:108B9C0090460446FFF7FFFEDFF8A490A8442F464A
:108BAC004745BA463DD017F8016B222E06D05C2EF5
:108BBC0004D0304600F0C6F90028F1D12368AAEBA6
:108BCC0005029B682946204698475C212046FFF702
:108BDC00E2FE0D2E0AD8072E1CD9A6F10803052B90
:108BEC0018D8DFE803F00D0F11171315222E01D042
:108BFC005C2E0FD131462046FFF7CDFE3D46CFE728
:108C0C006221F8E77421F6E76E21F4E76621F2E7BA
:108C1C007221F0E723683246DB68494620469847C4
:108C2C00ECE7BD4205D023687A1B9B682946204699
:108C3C00984722212046FFF7AEFEBDE8F08700BF23
:108C4C0073970B0013B50446CDE90021FFF75EFFC7
:108C5C002046DDE90021FFF797FF02232046237110
:108C6C0002B010BD13B50446CDE90021FFF74EFF4D
:108C7C002046DDE90021FFF787FF01232046237101
:108C8C0002B010BD7047000038B5044614252A46C2
:108C9C00002100F097F925804025074925812846B9
:108CAC00258200F031F804496060284600F02CF869
:108CBC00E060204638BD00BF79970B0030B50E4DF3
:108CCC002978BFF35B8F11F0010487B011D12846CE
:108CDC00FBF700FA68B101A8FFF7D6FF01AA2146FD
:108CEC000648FFF71DFA2846FBF7F9F9044800F08F
:108CFC0023F9024807B030BD40E7032044E70320C6
:108D0C00918C0B00FBF7D1B9FBF7D1B908B5FCF787
:108D1C0059FA0000014900F0F9B800BF94970B0014
:108D2C007FB500241023CDE90234036815469E69F3
:108D3C0012686B46CDE90044B0479DF8043003F04F
:108D4C000603062B03BF009B2B600120204604B0BA
:108D5C0070BD0098904214BF01200620704700009F
:108D6C0010B5034B0360044600F0CDF8204610BD4F
:108D7C00D4970B0010B50446FFF7F2FF20460821EC
:108D8C00FBF799F9204610BD2DE9F0411F46DDE9AE
:108D9C000834DDF8188098450646154607D1079922
:108DAC0000F0B4F818B165710020BDE8F0813946C7
:108DBC00304600F0ABF80028F6D00123C4F8008050
:108DCC002571A371F0E738B515461C4600F09EF8E6
:108DDC0020B10823E36006232560237138BD73B5E9
:108DEC0005460C4601921E4600F090F850B9032E31
:108DFC0008D82368019A5B692946204602B0BDE871
:108E0C007040184702B070BD10B5034B03600446A8
:108E1C00FFF7A6FF204610BD34980B0010B5044692
:108E2C00FFF7F2FF20460C21FBF745F9204610BD59
:108E3C00F7B5089F974205460E4614460AD0A86817
:108E4C0002680897156A31462246AC4603B0BDE865
:108E5C00F04060471946019300F058F8019B002838
:108E6C00EDD0062003B0F0BD2DE9F14F0D461946AB
:108E7C00DDE90A4BDDE90CA681461746984600F061
:108E8C0045F890B1002D3460377109DB61198A45C2
:108E9C000CBF06210121B171002001B0BDE8F08F9B
:108EAC000235F9D10123B371F6E7544506D1594681
:108EBC00484600F02BF808B17771EDE7D9F80800B7
:108ECC000368CDE90CA6CDE90A4BDC693A4643466A
:108EDC002946A44601B0BDE8F04F60472DE9F041AA
:108EEC0007460C4615461E46FFF76DFF48B9B86895
:108EFC0003689F692A4633462146BC46BDE8F041CB
:108F0C006047BDE8F081704700207047814208B58A
:108F1C000ED0406803782A2B0CD049680B782A2B8A
:108F2C0008BF0131FBF774F8B0FA80F0400908BDB6
:108F3C000120FCE70020FAE7002301461A461846F8
:108F4C0000F056B9024B1844407800F09700704777
:108F5C0001990B0010B501390244904201D1002057
:108F6C0005E0037811F8014FA34201D0181B10BD86
:108F7C000130F2E70A44914200F1FF3300D170470F
:108F8C0010B511F8014B03F8014F9142F9D110BD06
:108F9C00884210B501EB020402D98442234607D85B
:108FAC00431EA14208D011F8012B03F8012FF8E75A
:108FBC00024401468A4200D110BD13F8014D02F85B
:108FCC00014DF7E702440346934200D1704703F882
:108FDC00011BF9E738B5104B1D68AB6B0446B3B9F0
:108FEC001820FCF7C7F80246A86320B90B4B0C48B5
:108FFC004221FCF7F7F80B490B4BC0E900130B4B64
:10900C0083600B23838100210120C2E90401AB6B37
:10901C0000221C615A6138BD80E503206D980B005D
:10902C0084980B000E33CDAB34126DE6ECDE0500EC
:10903C00C9B2034610F8012B1AB18A42F9D118466D
:10904C007047002918BF0023F9E710B50446FFF755
:10905C00EFFF18B92046FAF7E5FF204410BD034690
:10906C0011F8012B03F8012B002AF9D1704710B528
:10907C007AB103460139841813F8010B11F8012F4A
:10908C00904201D1A34201D1801A10BD0028F3D126
:10909C00FAE71046F9E710B5024601448A42134636
:1090AC0003D01C780132002CF8D1181A10BD38B539
:1090BC0003460C4669B9BDE83840FFF7B9BF431CFD
:1090CC00054621461846FFF7B3FF0028F7D128467E
:1090DC0038BD0025F5E70000012B2DE9F04701D044
:1090EC00242B06D9FCF776F8162303600020BDE884
:1090FC00F087DFF8E4C00D462E4615F8014B14F846
:10910C000C7017F00807F7D12D2C32D12C780127D1
:10911C00B51C002B5BD0102B09D1302C07D12C782F
:10912C0004F0DF04582C4DD16C781023023507F174
:10913C00004808F1FF384FF0000CB8FBF3F9664615
:10914C0003FB198AA4F1300EBEF1090F16D8744630
:10915C00A34224DDBCF1000F1EDBB1451CD301D1B1
:10916C00A24519DB06FB03464FF0010C15F8014B29
:10917C00E8E72B2C04BF2C78B51CCAE7A4F1410EF0
:10918C00BEF1190F01D8373CE2E7A4F1610EBEF134
:10919C00190F04D8573CDBE74FF0FF3CE6E7BCF176
:1091AC00000F05DA22230360464642B930469EE79B
:1091BC0007B17642002AF9D0BCF1000F00D0691E2D
:1091CC001160F3E73024002BB1D10823AFE7302C2A
:1091DC00A5D00A23ABE700BF02990B0013460A4641
:1091EC00014602480068FFF777BF00BF80E5032007
:1091FC002DE9F843DFF8B8800646D8F800001F4682
:10920C000D46914600F056F8254B1C6834B9254C98
:10921C001C60254B13B11B68C4F8883063681F2B86
:10922C0007DDD8F8000000F047F84FF0FF30BDE83C
:10923C00F8834EB3D4F8880088B91C4B23B9D8F8FE
:10924C00000000F038F8F0E74FF48470FBF792FF61
:10925C000028F4D00023C0E94033C4F888006368C8
:10926C0040F8239001229A4000EB8301D0F80031A2
:10927C001343C0F80031022EC1F8807002BFD0F841
:10928C0004311343C0F804316368D8F800005A1C49
:10929C000233626044F8235000F00EF80020C6E759
:1092AC00E8E703205CE703200000000081510B007D
:1092BC00E4E50320704770477047000000044D51EF
:1092CC0054540400064D51497364700300000000AF
:1092DC000000FB349B5F8000008000100000000049
:1092EC000000000041400B007D400B00A5400B002E
:1092FC00A9400B000000000043616C6C206F6E20D5
:10930C0070757265207669727475616C0072737316
:10931C00693D2564207365727665723D253032583F
:10932C003A253032583A253032583A253032583AAC
:10933C00253032583A25303258007363616E6E69AD
:10934C006E67004241522F6172676F6E322F52531B
:10935C005349006C61622E74686577636C2E636F81
:10936C006D0061666537616363352D333361392D6B
:10937C00343738662D626265312D38393434616189
:10938C003038653838340000000000000000000060
:10939C000000000000000000C9400B00F1400B0071
:1093AC000000000000000000F5400B0029410B00FC
:1093BC00AD790B00517B0B00000000000000000099
:1093CC006F520B0065520B005B520B0051520B009D
:1093DC0045520B0039520B00BD870B00C5870B00A3
:1093EC002D520B0025520B001B520B0011520B007F
:1093FC00F5870B00417373657274696F6E46616912
:10940C006C7572652066616C736500776972696E44
:10941C00672E626C650053746172742064697363A7
:10942C006F766572696E67207365727669636573B2
:10943C002E00417373657274696F6E4661696C7549
:10944C0072652068616C5F626C655F737461636BDD
:10945C005F696E6974286E756C6C70747229203D2E
:10946C003D2053595354454D5F4552524F525F4E18
:10947C004F4E45004661696C656420746F20616CC9
:10948C006C6F63617465206D656D6F727921004638
:10949C0061696C656420746F20617070656E642006
:1094AC00706565722043656E7472616C20646576BC
:1094BC006963652E00436F6E6E656374656400446A
:1094CC006973636F6E6E6563746564000000000001
:1094DC000000000071550B0095550B007D5C0B00D6
:1094EC00A3550B0075550B00000000000000000098
:1094FC00626175640053657269616C0053657269D1
:10950C00616C31004A534F4E53747265616D4C6FF0
:10951C006748616E646C6572006170700025303153
:10952C00307520005D20002C200028293A200020D6
:10953C005B00636F6465203D2000256900646574E1
:10954C0061696C73203D20000D0A0066006C6E0092
:10955C00666E007400636F64650064657461696CA9
:10956C00000000000000000000000000A76D0B00D0
:10957C00CD6D0B008B6D0B000F890B0000000000F4
:10958C000000000055720B006D720B00AD790B00E2
:10959C00517B0B00000000000000000081720B00EA
:1095AC0095720B00897B0B00936D0B000000000083
:1095BC0000000000A56D0B00DB6D0B0011790B009A
:1095CC00956D0B000000000000000000A36D0B0067
:1095DC00E96D0B00BD710B000B6E0B0025592D2591
:1095EC006D2D25645425483A254D3A2553257A008E
:1095FC0061736374696D6500000000000000000079
:10960C00917E0B00817E0B00837E0B00000000001E
:10961C0000000000A37F0B000B800B00E17F0B0010
:10962C00CD6C0B00D37F0B00A57F0B00B57F0B001F
:10963C0005800B00C57F0B009D7F0B000000000018
:10964C0000000000B1800B001D810B00F5800B00A9
:10965C00CD6C0B00C5800B00E1800B00D3800B00A0
:10966C00EF800B00B3800B00B7800B007769726939
:10967C006E670072656376206572726F72203D2092
:10968C00256400000000000000000000ED810B00CC
:10969C0011820B00FB860B001F820B00F1810B006B
:1096AC000000000000000000117D0B00297D0B0064
:1096BC0069810B0083810B0091850B00AD810B0040
:1096CC0007840B00E1810B0099840B00D9820B00FD
:1096DC0035840B0045860B00D5830B00E3810B0012
:1096EC0095810B0025820B00B9820B000000000055
:1096FC00000000005F870B0055870B004B870B00A9
:10970C0001870B003F870B0033870B00BD870B00D5
:10971C00C5870B0027870B001F870B0015870B00D5
:10972C000B870B00F5870B00000000000000000009
:10973C007D870B0087870B0091870B009B870B00A5
:10974C00A5870B00B1870B00BD870B00C5870B00ED
:10975C00CD870B00D9870B00E1870B00EB870B0043
:10976C00F5870B002575007525303478000053748F
:10977C0031395F53705F6D616B655F7368617265E2
:10978C00645F746167000000D4970B007A970B003C
:10979C0034980B00A8970B0058980B004E31305F93
:1097AC005F637878616269763131375F5F636C61D2
:1097BC0073735F747970655F696E666F4500000046
:1097CC00000000009C970B006D8D0B00818D0B0031
:1097DC00158F0B00158F0B00EB8D0B002D8D0B00D7
:1097EC00D38D0B00958D0B005F8D0B0034980B0007
:1097FC0004980B009C970B004E31305F5F637878B8
:10980C00616269763132305F5F73695F636C61737B
:10981C00735F747970655F696E666F450000000058
:10982C0000000000F8970B00158E0B00298E0B0022
:10983C00158F0B00158F0B00EB8D0B002D8D0B0076
:10984C00E98E0B00758E0B003D8E0B00D4970B0030
:10985C0060980B00537439747970655F696E666F2C
:10986C00005245454E54206D616C6C6F63207375CE
:10987C0063636565646564002F6D6E742F776F721A
:10988C006B73706163652F776F726B737061636557
:10989C002F4743432D31302D706970656C696E65AF
:1098AC002F6A656E6B696E732D4743432D31302DD6
:1098BC00706970656C696E652D34385F323032308A
:1098CC00313132345F313630363138303634312F35
:1098DC007372632F6E65776C69622F6E65776C6936
:1098EC00622F6C6962632F7374646C69622F72618E
:1098FC006E642E63000020202020202020202028B1
:10990C00282828282020202020202020202020202B
:10991C002020202020208810101010101010101063
:10992C0010101010101004040404040404040404A3
:10993C001010101010101041414141414101010122
:10994C0001010101010101010101010101010101FB
:10995C000110101010101042424242424202020208
:10996C0002020202020202020202020202020202CB
:10997C000210101010200000000000000000000079
:10998C0000000000000000000000000000000000CB
:10999C0000000000000000000000000000000000BB
:1099AC0000000000000000000000000000000000AB
:1099BC00000000000000000000000000000000009B
:1099CC00000000000000000000000000000000008B
:1099DC00000000000000000000000000000000007B
:1099EC00000000000000000000000000000000006B
:1099FC00000000000000000011440B0079520B0025
:109A0C008D520B00BD6C0B009D790B00FD7C0B0087
:0C9A1C003D7D0B0069870B00CD880B001E
:109A2800040000001400000003000000474E550029
:109A380035992B8EAF9F7E7D94BFBEB01FFAE2385A
:049A480095B1BB2EEB
:109A4C00C0950B00D8950B00FC950B0084E503200A
:109A5C0000000000000000000000000000000000FA
:109A6C0000000000000000000000000000000000EA
:109A7C0000000000000000000000000000000000DA
:109A8C0000000000000000000000000000000000CA
:109A9C0000000000000000000000000000000000BA
:109AAC0000000000000000000000000000000000AA
:049ABC00ECE70320B0
:049AC00000000000A2
